{
    "contractName": "Disk",
    "abi": [
        {
            "inputs": [],
            "stateMutability": "nonpayable",
            "type": "constructor"
        },
        {
            "anonymous": false,
            "inputs": [
                {
                    "indexed": true,
                    "internalType": "address",
                    "name": "previousOwner",
                    "type": "address"
                },
                {
                    "indexed": true,
                    "internalType": "address",
                    "name": "newOwner",
                    "type": "address"
                }
            ],
            "name": "OwnershipTransferred",
            "type": "event"
        },
        {
            "anonymous": false,
            "inputs": [
                {
                    "indexed": false,
                    "internalType": "string",
                    "name": "name",
                    "type": "string"
                }
            ],
            "name": "makeDir",
            "type": "event"
        },
        {
            "anonymous": false,
            "inputs": [
                {
                    "indexed": false,
                    "internalType": "string",
                    "name": "name",
                    "type": "string"
                }
            ],
            "name": "makeFile",
            "type": "event"
        },
        {
            "inputs": [
                {
                    "internalType": "string",
                    "name": "_path",
                    "type": "string"
                },
                {
                    "internalType": "string",
                    "name": "_name",
                    "type": "string"
                }
            ],
            "name": "createDir",
            "outputs": [],
            "stateMutability": "nonpayable",
            "type": "function"
        },
        {
            "inputs": [
                {
                    "internalType": "string",
                    "name": "_path",
                    "type": "string"
                },
                {
                    "internalType": "string",
                    "name": "_name",
                    "type": "string"
                },
                {
                    "internalType": "uint256",
                    "name": "_content_type",
                    "type": "uint256"
                },
                {
                    "internalType": "bytes",
                    "name": "_data",
                    "type": "bytes"
                }
            ],
            "name": "createFile",
            "outputs": [],
            "stateMutability": "nonpayable",
            "type": "function"
        },
        {
            "inputs": [],
            "name": "emptyString",
            "outputs": [
                {
                    "internalType": "bytes32",
                    "name": "",
                    "type": "bytes32"
                }
            ],
            "stateMutability": "view",
            "type": "function"
        },
        {
            "inputs": [
                {
                    "internalType": "string",
                    "name": "_name",
                    "type": "string"
                }
            ],
            "name": "existDir",
            "outputs": [
                {
                    "internalType": "bool",
                    "name": "",
                    "type": "bool"
                }
            ],
            "stateMutability": "view",
            "type": "function"
        },
        {
            "inputs": [
                {
                    "internalType": "string",
                    "name": "_name",
                    "type": "string"
                }
            ],
            "name": "existFile",
            "outputs": [
                {
                    "internalType": "bool",
                    "name": "",
                    "type": "bool"
                }
            ],
            "stateMutability": "view",
            "type": "function"
        },
        {
            "inputs": [
                {
                    "internalType": "string",
                    "name": "_name",
                    "type": "string"
                }
            ],
            "name": "infoFile",
            "outputs": [
                {
                    "components": [
                        {
                            "internalType": "string",
                            "name": "name",
                            "type": "string"
                        },
                        {
                            "internalType": "uint256",
                            "name": "content_type",
                            "type": "uint256"
                        },
                        {
                            "internalType": "uint256",
                            "name": "creation_date",
                            "type": "uint256"
                        }
                    ],
                    "internalType": "struct Disk.longListInfo",
                    "name": "",
                    "type": "tuple"
                }
            ],
            "stateMutability": "view",
            "type": "function"
        },
        {
            "inputs": [
                {
                    "internalType": "string",
                    "name": "_name",
                    "type": "string"
                }
            ],
            "name": "listDir",
            "outputs": [
                {
                    "internalType": "string[]",
                    "name": "",
                    "type": "string[]"
                }
            ],
            "stateMutability": "view",
            "type": "function"
        },
        {
            "inputs": [
                {
                    "internalType": "bytes32",
                    "name": "",
                    "type": "bytes32"
                }
            ],
            "name": "listDisk",
            "outputs": [
                {
                    "internalType": "bool",
                    "name": "isexist",
                    "type": "bool"
                },
                {
                    "internalType": "string",
                    "name": "name",
                    "type": "string"
                },
                {
                    "internalType": "uint256",
                    "name": "content_type",
                    "type": "uint256"
                },
                {
                    "internalType": "uint256",
                    "name": "creation_date",
                    "type": "uint256"
                },
                {
                    "internalType": "bytes",
                    "name": "data",
                    "type": "bytes"
                }
            ],
            "stateMutability": "view",
            "type": "function"
        },
        {
            "inputs": [
                {
                    "internalType": "string",
                    "name": "_name",
                    "type": "string"
                }
            ],
            "name": "longListDir",
            "outputs": [
                {
                    "components": [
                        {
                            "internalType": "string",
                            "name": "name",
                            "type": "string"
                        },
                        {
                            "internalType": "uint256",
                            "name": "content_type",
                            "type": "uint256"
                        },
                        {
                            "internalType": "uint256",
                            "name": "creation_date",
                            "type": "uint256"
                        }
                    ],
                    "internalType": "struct Disk.longListInfo[]",
                    "name": "",
                    "type": "tuple[]"
                }
            ],
            "stateMutability": "view",
            "type": "function"
        },
        {
            "inputs": [],
            "name": "owner",
            "outputs": [
                {
                    "internalType": "address",
                    "name": "",
                    "type": "address"
                }
            ],
            "stateMutability": "view",
            "type": "function"
        },
        {
            "inputs": [
                {
                    "internalType": "string",
                    "name": "_name",
                    "type": "string"
                }
            ],
            "name": "readFile",
            "outputs": [
                {
                    "internalType": "bytes",
                    "name": "",
                    "type": "bytes"
                }
            ],
            "stateMutability": "view",
            "type": "function"
        },
        {
            "inputs": [],
            "name": "renounceOwnership",
            "outputs": [],
            "stateMutability": "nonpayable",
            "type": "function"
        },
        {
            "inputs": [],
            "name": "root",
            "outputs": [
                {
                    "internalType": "bytes32",
                    "name": "",
                    "type": "bytes32"
                }
            ],
            "stateMutability": "view",
            "type": "function"
        },
        {
            "inputs": [
                {
                    "internalType": "address",
                    "name": "newOwner",
                    "type": "address"
                }
            ],
            "name": "transferOwnership",
            "outputs": [],
            "stateMutability": "nonpayable",
            "type": "function"
        },
        {
            "inputs": [],
            "name": "version",
            "outputs": [
                {
                    "internalType": "string",
                    "name": "",
                    "type": "string"
                }
            ],
            "stateMutability": "view",
            "type": "function"
        }
    ],
    "bytecode": "60c060405260036080908152620312e360ec1b60a052600190620000249082620004c4565b50604051602f60f81b602082015260210160408051601f19818403018152828252805160209182012060035560008352820190819052905190206004553480156200006e57600080fd5b506200007a33620000a6565b604080516020808201835260008083528351918201909352918252620000a091620000f6565b62000609565b600080546001600160a01b038381166001600160a01b0319831681178455604051919092169283917f8be0079c531659141344cd1fd0a4f28419497f9722a3daafe3b4186f6b6457e09190a35050565b6200010182620002ed565b15620001455760405162461bcd60e51b815260206004820152600e60248201526d14185d1a081b9bdd08195e1a5cdd60921b60448201526064015b60405180910390fd5b600082826040516020016200015b9190620005c2565b60408051601f19818403018152908290526200017b9291602001620005da565b60408051601f1981840301815291905290506200019881620002ed565b15620001e75760405162461bcd60e51b815260206004820152601760248201527f4469726563746f727920616c726561647920657869737400000000000000000060448201526064016200013c565b600081604051602001620001fc9190620005fb565b604051602081830303815290604052805190602001209050620002506040518060c0016040528060001515815260200160608152602001600081526020016000815260200160608152602001606081525090565b60018082526020808301868152600060408086018290524260608701528682526002909352919091208351815460ff1916901515178155905183928201906200029a9082620004c4565b50604082015160028201556060820151600382015560808201518051620002cc91600484019160209091019062000348565b5060a08201516005820190620002e39082620004c4565b5050505050505050565b60008082604051602001620003039190620005fb565b60405160208183030381529060405280519060200120905060045481036200032e5750600192915050565b60008181526002602052604090205460ff165b9392505050565b82805482825590600052602060002090810192821562000393579160200282015b82811115620003935782518290620003829082620004c4565b509160200191906001019062000369565b50620003a1929150620003a5565b5090565b80821115620003a1576000620003bc8282620003c6565b50600101620003a5565b508054620003d49062000435565b6000825580601f10620003e5575050565b601f01602090049060005260206000209081019062000405919062000408565b50565b5b80821115620003a1576000815560010162000409565b634e487b7160e01b600052604160045260246000fd5b600181811c908216806200044a57607f821691505b6020821081036200046b57634e487b7160e01b600052602260045260246000fd5b50919050565b601f821115620004bf57600081815260208120601f850160051c810160208610156200049a5750805b601f850160051c820191505b81811015620004bb57828155600101620004a6565b5050505b505050565b81516001600160401b03811115620004e057620004e06200041f565b620004f881620004f1845462000435565b8462000471565b602080601f831160018114620005305760008415620005175750858301515b600019600386901b1c1916600185901b178555620004bb565b600085815260208120601f198616915b82811015620005615788860151825594840194600190910190840162000540565b5085821015620005805787850151600019600388901b60f8161c191681555b5050505050600190811b01905550565b6000815160005b81811015620005b3576020818501810151868301520162000597565b50600093019283525090919050565b602f60f81b8152600062000341600183018462000590565b6000620005f3620005ec838662000590565b8462000590565b949350505050565b600062000341828462000590565b611a2880620006196000396000f3fe608060405234801561001057600080fd5b50600436106100f55760003560e01c806362265a7411610097578063c6b67fea11610066578063c6b67fea14610221578063dc81327814610234578063ebf0c71714610247578063f2fde38b1461025057600080fd5b806362265a74146101ba578063715018a6146101da5780638da5cb5b146101e2578063a490de15146101fd57600080fd5b80635049975a116100d35780635049975a1461016657806354fd4d501461017d57806359e5eb9c1461019257806360f9bb11146101a757600080fd5b8063021d5c97146100fa578063251c74d51461012357806329ae4e2614610143575b600080fd5b61010d610108366004611431565b610263565b60405161011a91906114f3565b60405180910390f35b610136610131366004611431565b6104a5565b60405161011a9190611555565b610156610151366004611431565b61061f565b604051901515815260200161011a565b61016f60045481565b60405190815260200161011a565b610185610677565b60405161011a9190611568565b6101a56101a036600461157b565b610705565b005b6101856101b5366004611431565b6109dc565b6101cd6101c8366004611431565b610af6565b60405161011a9190611621565b6101a5610d36565b6000546040516001600160a01b03909116815260200161011a565b61021061020b366004611676565b610d4a565b60405161011a95949392919061168f565b6101a561022f3660046116d4565b610e8d565b610156610242366004611431565b610f8a565b61016f60035481565b6101a561025e366004611738565b610fc8565b60606000826040516020016102789190611761565b60405160208183030381529060405280519060200120905060045481036102a257506003546102f2565b6102ab83610f8a565b6102f25760405162461bcd60e51b8152602060048201526013602482015272111a5c9958dd1bdc9e481b9bdd08195e1a5cdd606a1b60448201526064015b60405180910390fd5b606061031860405180606001604052806060815260200160008152602001600081525090565b6000805b60008581526002602052604090206004015481101561049a5760008581526002602052604090206004018054829081106103585761035861177d565b9060005260206000200160405160200161037291906117cd565b6040516020818303038152906040528051906020012091506103a38260009081526002602052604090205460ff1690565b61048857600082815260026020526040902060010180546103c390611793565b80601f01602080910402602001604051908101604052809291908181526020018280546103ef90611793565b801561043c5780601f106104115761010080835404028352916020019161043c565b820191906000526020600020905b81548152906001019060200180831161041f57829003601f168201915b505050918552505060008281526002602081815260408084208084015483890152938690529190526003909101549084015283518390859061047c61177d565b60200260200101819052505b8061049281611859565b91505061031c565b509195945050505050565b6104c960405180606001604052806060815260200160008152602001600081525090565b6104d28261061f565b61050f5760405162461bcd60e51b815260206004820152600e60248201526d119a5b19481b9bdd08195e1a5cdd60921b60448201526064016102e9565b6000826040516020016105229190611761565b60408051601f19818403018152828252805160209182012060608085018452845260009184018290529183015291506000828152600260205260409020600101805461056d90611793565b80601f016020809104026020016040519081016040528092919081815260200182805461059990611793565b80156105e65780601f106105bb576101008083540402835291602001916105e6565b820191906000526020600020905b8154815290600101906020018083116105c957829003601f168201915b50505091835250506000828152600260208181526040808420808401548387015295909352526003909201549181019190915292915050565b600080826040516020016106339190611761565b604051602081830303815290604052805190602001209050600454810361065d5750600092915050565b60008181526002602052604090205460ff165b9392505050565b6001805461068490611793565b80601f01602080910402602001604051908101604052809291908181526020018280546106b090611793565b80156106fd5780601f106106d2576101008083540402835291602001916106fd565b820191906000526020600020905b8154815290600101906020018083116106e057829003601f168201915b505050505081565b61070d611041565b61071684610f8a565b6107535760405162461bcd60e51b815260206004820152600e60248201526d14185d1a081b9bdd08195e1a5cdd60921b60448201526064016102e9565b600084846040516020016107679190611872565b60408051601f1981840301815290829052610785929160200161189b565b604051602081830303815290604052905061079f8161061f565b156107e15760405162461bcd60e51b8152602060048201526012602482015271119a5b1948185b1c9958591e48195e1a5cdd60721b60448201526064016102e9565b6000856040516020016107f49190611761565b604051602081830303815290604052805190602001209050600454810361081a57506003545b617d008351106108625760405162461bcd60e51b8152602060048201526013602482015272044617461206c656e677468203e20333230303606c1b60448201526064016102e9565b6000826040516020016108759190611761565b6040516020818303038152906040528051906020012090506108c86040518060c0016040528060001515815260200160608152602001600081526020016000815260200160608152602001606081525090565b60018152602081018790526108de8660026118ca565b60408281019190915242606083015260a082018690526000838152600260209081529190208251815460ff19169015151781559082015182919060018201906109279082611932565b506040820151600282015560608201516003820155608082015180516109579160048401916020909101906112c8565b5060a0820151600582019061096c9082611932565b50505060008381526002602090815260408220600401805460018101825590835291200161099a8882611932565b507f7f5198815130369cc03808278b0efb673c64b09333e7efba2922a7a8f3f372bb846040516109ca9190611568565b60405180910390a15050505050505050565b60606109e78261061f565b610a245760405162461bcd60e51b815260206004820152600e60248201526d119a5b19481b9bdd08195e1a5cdd60921b60448201526064016102e9565b600082604051602001610a379190611761565b604051602081830303815290604052805190602001209050600260008281526020019081526020016000206005018054610a7090611793565b80601f0160208091040260200160405190810160405280929190818152602001828054610a9c90611793565b8015610ae95780601f10610abe57610100808354040283529160200191610ae9565b820191906000526020600020905b815481529060010190602001808311610acc57829003601f168201915b5050505050915050919050565b6060600082604051602001610b0b9190611761565b6040516020818303038152906040528051906020012090506004548103610c1357600354600090815260026020908152604080832060040180548251818502810185019093528083529193909284015b82821015610c07578382906000526020600020018054610b7a90611793565b80601f0160208091040260200160405190810160405280929190818152602001828054610ba690611793565b8015610bf35780601f10610bc857610100808354040283529160200191610bf3565b820191906000526020600020905b815481529060010190602001808311610bd657829003601f168201915b505050505081526020019060010190610b5b565b50505050915050919050565b610c1c83610f8a565b610c5e5760405162461bcd60e51b8152602060048201526013602482015272111a5c9958dd1bdc9e481b9bdd08195e1a5cdd606a1b60448201526064016102e9565b600081815260026020908152604080832060040180548251818502810185019093528083529193909284015b82821015610c07578382906000526020600020018054610ca990611793565b80601f0160208091040260200160405190810160405280929190818152602001828054610cd590611793565b8015610d225780601f10610cf757610100808354040283529160200191610d22565b820191906000526020600020905b815481529060010190602001808311610d0557829003601f168201915b505050505081526020019060010190610c8a565b610d3e611041565b610d48600061109b565b565b6002602052600090815260409020805460018201805460ff9092169291610d7090611793565b80601f0160208091040260200160405190810160405280929190818152602001828054610d9c90611793565b8015610de95780601f10610dbe57610100808354040283529160200191610de9565b820191906000526020600020905b815481529060010190602001808311610dcc57829003601f168201915b505050505090806002015490806003015490806005018054610e0a90611793565b80601f0160208091040260200160405190810160405280929190818152602001828054610e3690611793565b8015610e835780601f10610e5857610100808354040283529160200191610e83565b820191906000526020600020905b815481529060010190602001808311610e6657829003601f168201915b5050505050905085565b610e95611041565b600081604051602001610ea89190611761565b6040516020818303038152906040528051906020012090506004548103610f085760405162461bcd60e51b81526020600482015260146024820152734469726563746f7279206e616d6520656d70747960601b60448201526064016102e9565b610f1283836110eb565b7fd7346b95834c1ec24131e4e87243ea6493557d3ae77d2dba74765b8ef77e7b8a8383604051602001610f459190611872565b60408051601f1981840301815290829052610f63929160200161189b565b60408051601f1981840301815290829052610f7d91611568565b60405180910390a1505050565b60008082604051602001610f9e9190611761565b604051602081830303815290604052805190602001209050600454810361065d5750600192915050565b610fd0611041565b6001600160a01b0381166110355760405162461bcd60e51b815260206004820152602660248201527f4f776e61626c653a206e6577206f776e657220697320746865207a65726f206160448201526564647265737360d01b60648201526084016102e9565b61103e8161109b565b50565b6000546001600160a01b03163314610d485760405162461bcd60e51b815260206004820181905260248201527f4f776e61626c653a2063616c6c6572206973206e6f7420746865206f776e657260448201526064016102e9565b600080546001600160a01b038381166001600160a01b0319831681178455604051919092169283917f8be0079c531659141344cd1fd0a4f28419497f9722a3daafe3b4186f6b6457e09190a35050565b6110f482610f8a565b156111325760405162461bcd60e51b815260206004820152600e60248201526d14185d1a081b9bdd08195e1a5cdd60921b60448201526064016102e9565b600082826040516020016111469190611872565b60408051601f1981840301815290829052611164929160200161189b565b604051602081830303815290604052905061117e81610f8a565b156111cb5760405162461bcd60e51b815260206004820152601760248201527f4469726563746f727920616c726561647920657869737400000000000000000060448201526064016102e9565b6000816040516020016111de9190611761565b6040516020818303038152906040528051906020012090506112316040518060c0016040528060001515815260200160608152602001600081526020016000815260200160608152602001606081525090565b60018082526020808301868152600060408086018290524260608701528682526002909352919091208351815460ff1916901515178155905183928201906112799082611932565b506040820151600282015560608201516003820155608082015180516112a99160048401916020909101906112c8565b5060a082015160058201906112be9082611932565b5050505050505050565b82805482825590600052602060002090810192821561130e579160200282015b8281111561130e57825182906112fe9082611932565b50916020019190600101906112e8565b5061131a92915061131e565b5090565b8082111561131a576000611332828261133b565b5060010161131e565b50805461134790611793565b6000825580601f10611357575050565b601f01602090049060005260206000209081019061103e91905b8082111561131a5760008155600101611371565b634e487b7160e01b600052604160045260246000fd5b600067ffffffffffffffff808411156113b6576113b6611385565b604051601f8501601f19908116603f011681019082821181831017156113de576113de611385565b816040528093508581528686860111156113f757600080fd5b858560208301376000602087830101525050509392505050565b600082601f83011261142257600080fd5b6106708383356020850161139b565b60006020828403121561144357600080fd5b813567ffffffffffffffff81111561145a57600080fd5b61146684828501611411565b949350505050565b60005b83811015611489578181015183820152602001611471565b50506000910152565b600081518084526114aa81602086016020860161146e565b601f01601f19169290920160200192915050565b60008151606084526114d36060850182611492565b905060208301516020850152604083015160408501528091505092915050565b6000602080830181845280855180835260408601915060408160051b870101925083870160005b8281101561154857603f198886030184526115368583516114be565b9450928501929085019060010161151a565b5092979650505050505050565b60208152600061067060208301846114be565b6020815260006106706020830184611492565b6000806000806080858703121561159157600080fd5b843567ffffffffffffffff808211156115a957600080fd5b6115b588838901611411565b955060208701359150808211156115cb57600080fd5b6115d788838901611411565b94506040870135935060608701359150808211156115f457600080fd5b508501601f8101871361160657600080fd5b6116158782356020840161139b565b91505092959194509250565b6000602080830181845280855180835260408601915060408160051b870101925083870160005b8281101561154857603f19888603018452611664858351611492565b94509285019290850190600101611648565b60006020828403121561168857600080fd5b5035919050565b851515815260a0602082015260006116aa60a0830187611492565b85604084015284606084015282810360808401526116c88185611492565b98975050505050505050565b600080604083850312156116e757600080fd5b823567ffffffffffffffff808211156116ff57600080fd5b61170b86838701611411565b9350602085013591508082111561172157600080fd5b5061172e85828601611411565b9150509250929050565b60006020828403121561174a57600080fd5b81356001600160a01b038116811461067057600080fd5b6000825161177381846020870161146e565b9190910192915050565b634e487b7160e01b600052603260045260246000fd5b600181811c908216806117a757607f821691505b6020821081036117c757634e487b7160e01b600052602260045260246000fd5b50919050565b60008083546117db81611793565b600182811680156117f3576001811461180857611837565b60ff1984168752821515830287019450611837565b8760005260208060002060005b8581101561182e5781548a820152908401908201611815565b50505082870194505b50929695505050505050565b634e487b7160e01b600052601160045260246000fd5b60006001820161186b5761186b611843565b5060010190565b602f60f81b81526000825161188e81600185016020870161146e565b9190910160010192915050565b600083516118ad81846020880161146e565b8351908301906118c181836020880161146e565b01949350505050565b808201808211156118dd576118dd611843565b92915050565b601f82111561192d57600081815260208120601f850160051c8101602086101561190a5750805b601f850160051c820191505b8181101561192957828155600101611916565b5050505b505050565b815167ffffffffffffffff81111561194c5761194c611385565b6119608161195a8454611793565b846118e3565b602080601f831160018114611995576000841561197d5750858301515b600019600386901b1c1916600185901b178555611929565b600085815260208120601f198616915b828110156119c4578886015182559484019460019091019084016119a5565b50858210156119e25787850151600019600388901b60f8161c191681555b5050505050600190811b0190555056fea26469706673582212209e33b01b676f353abc7a01994458cfd48af7cb3e876bf7fee29b2a677faf710a64736f6c63430008110033",
    "sourcePath": "c:/dvl/hackathons/dobc/contracts/Disk.sol",
    "compiler": {
        "name": "solc",
        "version": "0.8.17+commit.8df45f5f"
    },
    "functionHashes": {
        "createDir(string,string)": "c6b67fea",
        "createFile(string,string,uint256,bytes)": "59e5eb9c",
        "emptyString()": "5049975a",
        "existDir(string)": "dc813278",
        "existFile(string)": "29ae4e26",
        "infoFile(string)": "251c74d5",
        "listDir(string)": "62265a74",
        "listDisk(bytes32)": "a490de15",
        "longListDir(string)": "021d5c97",
        "owner()": "8da5cb5b",
        "readFile(string)": "60f9bb11",
        "renounceOwnership()": "715018a6",
        "root()": "ebf0c717",
        "transferOwnership(address)": "f2fde38b",
        "version()": "54fd4d50"
    },
    "gasEstimates": {
        "creation": {
            "codeDepositCost": "1339200",
            "executionCost": "infinite",
            "totalCost": "infinite"
        },
        "external": {
            "createDir(string,string)": "infinite",
            "createFile(string,string,uint256,bytes)": "infinite",
            "emptyString()": "2318",
            "existDir(string)": "infinite",
            "existFile(string)": "infinite",
            "infoFile(string)": "infinite",
            "listDir(string)": "infinite",
            "listDisk(bytes32)": "infinite",
            "longListDir(string)": "infinite",
            "owner()": "2368",
            "readFile(string)": "infinite",
            "renounceOwnership()": "infinite",
            "root()": "2361",
            "transferOwnership(address)": "28386",
            "version()": "infinite"
        },
        "internal": {
            "_createDir(string memory,string memory)": "infinite",
            "_existHash(bytes32)": "infinite"
        }
    }
}