{
    "contractName": "DiskRegistry",
    "abi": [
        {
            "inputs": [],
            "stateMutability": "nonpayable",
            "type": "constructor"
        },
        {
            "anonymous": false,
            "inputs": [
                {
                    "indexed": true,
                    "internalType": "address",
                    "name": "previousOwner",
                    "type": "address"
                },
                {
                    "indexed": true,
                    "internalType": "address",
                    "name": "newOwner",
                    "type": "address"
                }
            ],
            "name": "OwnershipTransferred",
            "type": "event"
        },
        {
            "anonymous": false,
            "inputs": [
                {
                    "indexed": false,
                    "internalType": "address",
                    "name": "owner",
                    "type": "address"
                },
                {
                    "indexed": false,
                    "internalType": "address",
                    "name": "disk",
                    "type": "address"
                }
            ],
            "name": "createDisk",
            "type": "event"
        },
        {
            "inputs": [],
            "name": "diskBytecode",
            "outputs": [
                {
                    "internalType": "bytes",
                    "name": "",
                    "type": "bytes"
                }
            ],
            "stateMutability": "view",
            "type": "function"
        },
        {
            "inputs": [],
            "name": "diskCreate",
            "outputs": [],
            "stateMutability": "nonpayable",
            "type": "function"
        },
        {
            "inputs": [
                {
                    "internalType": "address",
                    "name": "_owner",
                    "type": "address"
                }
            ],
            "name": "diskExist",
            "outputs": [
                {
                    "internalType": "bool",
                    "name": "",
                    "type": "bool"
                }
            ],
            "stateMutability": "view",
            "type": "function"
        },
        {
            "inputs": [
                {
                    "internalType": "address",
                    "name": "_owner",
                    "type": "address"
                }
            ],
            "name": "getDisk",
            "outputs": [
                {
                    "internalType": "address",
                    "name": "",
                    "type": "address"
                }
            ],
            "stateMutability": "view",
            "type": "function"
        },
        {
            "inputs": [
                {
                    "internalType": "address",
                    "name": "",
                    "type": "address"
                }
            ],
            "name": "listDisk",
            "outputs": [
                {
                    "internalType": "address",
                    "name": "",
                    "type": "address"
                }
            ],
            "stateMutability": "view",
            "type": "function"
        },
        {
            "inputs": [],
            "name": "owner",
            "outputs": [
                {
                    "internalType": "address",
                    "name": "",
                    "type": "address"
                }
            ],
            "stateMutability": "view",
            "type": "function"
        },
        {
            "inputs": [],
            "name": "renounceOwnership",
            "outputs": [],
            "stateMutability": "nonpayable",
            "type": "function"
        },
        {
            "inputs": [
                {
                    "internalType": "bytes",
                    "name": "_bytecode",
                    "type": "bytes"
                }
            ],
            "name": "setDiskBytecode",
            "outputs": [],
            "stateMutability": "nonpayable",
            "type": "function"
        },
        {
            "inputs": [
                {
                    "internalType": "address",
                    "name": "newOwner",
                    "type": "address"
                }
            ],
            "name": "transferOwnership",
            "outputs": [],
            "stateMutability": "nonpayable",
            "type": "function"
        },
        {
            "inputs": [],
            "name": "version",
            "outputs": [
                {
                    "internalType": "string",
                    "name": "",
                    "type": "string"
                }
            ],
            "stateMutability": "view",
            "type": "function"
        }
    ],
    "bytecode": "60c060405260036080908152620312e360ec1b60a052600190610022908261012d565b5034801561002f57600080fd5b506100393361003e565b6101ec565b600080546001600160a01b038381166001600160a01b0319831681178455604051919092169283917f8be0079c531659141344cd1fd0a4f28419497f9722a3daafe3b4186f6b6457e09190a35050565b634e487b7160e01b600052604160045260246000fd5b600181811c908216806100b857607f821691505b6020821081036100d857634e487b7160e01b600052602260045260246000fd5b50919050565b601f82111561012857600081815260208120601f850160051c810160208610156101055750805b601f850160051c820191505b8181101561012457828155600101610111565b5050505b505050565b81516001600160401b038111156101465761014661008e565b61015a8161015484546100a4565b846100de565b602080601f83116001811461018f57600084156101775750858301515b600019600386901b1c1916600185901b178555610124565b600085815260208120601f198616915b828110156101be5788860151825594840194600190910190840161019f565b50858210156101dc5787850151600019600388901b60f8161c191681555b5050505050600190811b01905550565b61086f806101fb6000396000f3fe608060405234801561001057600080fd5b506004361061009e5760003560e01c8063715018a611610066578063715018a61461015c5780638da5cb5b14610164578063ae7dd4a214610175578063b06e32fe1461019e578063f2fde38b146101a657600080fd5b806328070585146100a35780633e0a533c146100b857806354fd4d50146100fb5780636193ccfc1461011057806367a4852214610118575b600080fd5b6100b66100b136600461055b565b6101b9565b005b6100e66100c636600461060c565b6001600160a01b0390811660009081526002602052604090205416151590565b60405190151581526020015b60405180910390f35b6101036101f6565b6040516100f2919061068c565b610103610284565b61014461012636600461060c565b6001600160a01b039081166000908152600260205260409020541690565b6040516001600160a01b0390911681526020016100f2565b6100b6610291565b6000546001600160a01b0316610144565b61014461018336600461060c565b6002602052600090815260409020546001600160a01b031681565b6100b66102a5565b6100b66101b436600461060c565b610383565b6101c16103fc565b8051816040516020016101d592919061069f565b604051602081830303815290604052600390816101f29190610779565b5050565b60018054610203906106f0565b80601f016020809104026020016040519081016040528092919081815260200182805461022f906106f0565b801561027c5780601f106102515761010080835404028352916020019161027c565b820191906000526020600020905b81548152906001019060200180831161025f57829003601f168201915b505050505081565b60038054610203906106f0565b6102996103fc565b6102a36000610456565b565b336000908152600260205260409020546001600160a01b0316156103105760405162461bcd60e51b815260206004820152601760248201527f596f7520616c726561647920686176652061206469736b00000000000000000060448201526064015b60405180910390fd5b600061031a6104a6565b3360008181526002602090815260409182902080546001600160a01b0319166001600160a01b0386169081179091558251938452908301529192507fa291b54a93aa636a01da85321e1ca7287df7eec21daa03df675e21c9ce002f08910160405180910390a150565b61038b6103fc565b6001600160a01b0381166103f05760405162461bcd60e51b815260206004820152602660248201527f4f776e61626c653a206e6577206f776e657220697320746865207a65726f206160448201526564647265737360d01b6064820152608401610307565b6103f981610456565b50565b6000546001600160a01b031633146102a35760405162461bcd60e51b815260206004820181905260248201527f4f776e61626c653a2063616c6c6572206973206e6f7420746865206f776e65726044820152606401610307565b600080546001600160a01b038381166001600160a01b0319831681178455604051919092169283917f8be0079c531659141344cd1fd0a4f28419497f9722a3daafe3b4186f6b6457e09190a35050565b600080600380546104b6906106f0565b80601f01602080910402602001604051908101604052809291908181526020018280546104e2906106f0565b801561052f5780601f106105045761010080835404028352916020019161052f565b820191906000526020600020905b81548152906001019060200180831161051257829003601f168201915b505050505090508051602082016000f091505090565b634e487b7160e01b600052604160045260246000fd5b60006020828403121561056d57600080fd5b813567ffffffffffffffff8082111561058557600080fd5b818401915084601f83011261059957600080fd5b8135818111156105ab576105ab610545565b604051601f8201601f19908116603f011681019083821181831017156105d3576105d3610545565b816040528281528760208487010111156105ec57600080fd5b826020860160208301376000928101602001929092525095945050505050565b60006020828403121561061e57600080fd5b81356001600160a01b038116811461063557600080fd5b9392505050565b60005b8381101561065757818101518382015260200161063f565b50506000910152565b6000815180845261067881602086016020860161063c565b601f01601f19169290920160200192915050565b6020815260006106356020830184610660565b606360f81b815260e083901b6001600160e01b03191660018201526880600e6000396000f360b81b600582015281516000906106e281600e85016020870161063c565b91909101600e019392505050565b600181811c9082168061070457607f821691505b60208210810361072457634e487b7160e01b600052602260045260246000fd5b50919050565b601f82111561077457600081815260208120601f850160051c810160208610156107515750805b601f850160051c820191505b818110156107705782815560010161075d565b5050505b505050565b815167ffffffffffffffff81111561079357610793610545565b6107a7816107a184546106f0565b8461072a565b602080601f8311600181146107dc57600084156107c45750858301515b600019600386901b1c1916600185901b178555610770565b600085815260208120601f198616915b8281101561080b578886015182559484019460019091019084016107ec565b50858210156108295787850151600019600388901b60f8161c191681555b5050505050600190811b0190555056fea2646970667358221220469c8449bbaffc424d3ff9ff75cae14aff81fb838ca2470009a9a4aec68fd4ac64736f6c63430008110033",
    "sourcePath": "c:/dvl/hackathons/dobc/contracts/DiskRegistry.sol",
    "compiler": {
        "name": "solc",
        "version": "0.8.17+commit.8df45f5f"
    },
    "functionHashes": {
        "diskBytecode()": "6193ccfc",
        "diskCreate()": "b06e32fe",
        "diskExist(address)": "3e0a533c",
        "getDisk(address)": "67a48522",
        "listDisk(address)": "ae7dd4a2",
        "owner()": "8da5cb5b",
        "renounceOwnership()": "715018a6",
        "setDiskBytecode(bytes)": "28070585",
        "transferOwnership(address)": "f2fde38b",
        "version()": "54fd4d50"
    },
    "gasEstimates": {
        "creation": {
            "codeDepositCost": "431800",
            "executionCost": "infinite",
            "totalCost": "infinite"
        },
        "external": {
            "diskBytecode()": "infinite",
            "diskCreate()": "infinite",
            "diskExist(address)": "2535",
            "getDisk(address)": "2621",
            "listDisk(address)": "2567",
            "owner()": "2353",
            "renounceOwnership()": "infinite",
            "setDiskBytecode(bytes)": "infinite",
            "transferOwnership(address)": "28386",
            "version()": "infinite"
        },
        "internal": {
            "_deploy()": "infinite"
        }
    }
}